{
  "contractName": "ERC20Burnable",
  "abi": [
    {
      "constant": false,
      "inputs": [
        {
          "name": "spender",
          "type": "address"
        },
        {
          "name": "value",
          "type": "uint256"
        }
      ],
      "name": "approve",
      "outputs": [
        {
          "name": "",
          "type": "bool"
        }
      ],
      "payable": false,
      "stateMutability": "nonpayable",
      "type": "function"
    },
    {
      "constant": true,
      "inputs": [],
      "name": "totalSupply",
      "outputs": [
        {
          "name": "",
          "type": "uint256"
        }
      ],
      "payable": false,
      "stateMutability": "view",
      "type": "function"
    },
    {
      "constant": false,
      "inputs": [
        {
          "name": "sender",
          "type": "address"
        },
        {
          "name": "recipient",
          "type": "address"
        },
        {
          "name": "amount",
          "type": "uint256"
        }
      ],
      "name": "transferFrom",
      "outputs": [
        {
          "name": "",
          "type": "bool"
        }
      ],
      "payable": false,
      "stateMutability": "nonpayable",
      "type": "function"
    },
    {
      "constant": false,
      "inputs": [
        {
          "name": "spender",
          "type": "address"
        },
        {
          "name": "addedValue",
          "type": "uint256"
        }
      ],
      "name": "increaseAllowance",
      "outputs": [
        {
          "name": "",
          "type": "bool"
        }
      ],
      "payable": false,
      "stateMutability": "nonpayable",
      "type": "function"
    },
    {
      "constant": true,
      "inputs": [
        {
          "name": "account",
          "type": "address"
        }
      ],
      "name": "balanceOf",
      "outputs": [
        {
          "name": "",
          "type": "uint256"
        }
      ],
      "payable": false,
      "stateMutability": "view",
      "type": "function"
    },
    {
      "constant": false,
      "inputs": [],
      "name": "renounceOwnership",
      "outputs": [],
      "payable": false,
      "stateMutability": "nonpayable",
      "type": "function"
    },
    {
      "constant": true,
      "inputs": [],
      "name": "owner",
      "outputs": [
        {
          "name": "",
          "type": "address"
        }
      ],
      "payable": false,
      "stateMutability": "view",
      "type": "function"
    },
    {
      "constant": true,
      "inputs": [],
      "name": "isOwner",
      "outputs": [
        {
          "name": "",
          "type": "bool"
        }
      ],
      "payable": false,
      "stateMutability": "view",
      "type": "function"
    },
    {
      "constant": false,
      "inputs": [
        {
          "name": "spender",
          "type": "address"
        },
        {
          "name": "subtractedValue",
          "type": "uint256"
        }
      ],
      "name": "decreaseAllowance",
      "outputs": [
        {
          "name": "",
          "type": "bool"
        }
      ],
      "payable": false,
      "stateMutability": "nonpayable",
      "type": "function"
    },
    {
      "constant": false,
      "inputs": [
        {
          "name": "recipient",
          "type": "address"
        },
        {
          "name": "amount",
          "type": "uint256"
        }
      ],
      "name": "transfer",
      "outputs": [
        {
          "name": "",
          "type": "bool"
        }
      ],
      "payable": false,
      "stateMutability": "nonpayable",
      "type": "function"
    },
    {
      "constant": true,
      "inputs": [
        {
          "name": "owner",
          "type": "address"
        },
        {
          "name": "spender",
          "type": "address"
        }
      ],
      "name": "allowance",
      "outputs": [
        {
          "name": "",
          "type": "uint256"
        }
      ],
      "payable": false,
      "stateMutability": "view",
      "type": "function"
    },
    {
      "constant": false,
      "inputs": [
        {
          "name": "newOwner",
          "type": "address"
        }
      ],
      "name": "transferOwnership",
      "outputs": [],
      "payable": false,
      "stateMutability": "nonpayable",
      "type": "function"
    },
    {
      "anonymous": false,
      "inputs": [
        {
          "indexed": true,
          "name": "previousOwner",
          "type": "address"
        },
        {
          "indexed": true,
          "name": "newOwner",
          "type": "address"
        }
      ],
      "name": "OwnershipTransferred",
      "type": "event"
    },
    {
      "anonymous": false,
      "inputs": [
        {
          "indexed": true,
          "name": "from",
          "type": "address"
        },
        {
          "indexed": true,
          "name": "to",
          "type": "address"
        },
        {
          "indexed": false,
          "name": "value",
          "type": "uint256"
        }
      ],
      "name": "Transfer",
      "type": "event"
    },
    {
      "anonymous": false,
      "inputs": [
        {
          "indexed": true,
          "name": "owner",
          "type": "address"
        },
        {
          "indexed": true,
          "name": "spender",
          "type": "address"
        },
        {
          "indexed": false,
          "name": "value",
          "type": "uint256"
        }
      ],
      "name": "Approval",
      "type": "event"
    },
    {
      "constant": false,
      "inputs": [
        {
          "name": "amount",
          "type": "uint256"
        }
      ],
      "name": "burn",
      "outputs": [],
      "payable": false,
      "stateMutability": "nonpayable",
      "type": "function"
    },
    {
      "constant": false,
      "inputs": [
        {
          "name": "account",
          "type": "address"
        },
        {
          "name": "amount",
          "type": "uint256"
        }
      ],
      "name": "burnFrom",
      "outputs": [],
      "payable": false,
      "stateMutability": "nonpayable",
      "type": "function"
    }
  ],
  "bytecode": "0x60806040819052600080546001600160a01b03191633178082556001600160a01b0316917f8be0079c531659141344cd1fd0a4f28419497f9722a3daafe3b4186f6b6457e0908290a3610ba3806100576000396000f3fe608060405234801561001057600080fd5b50600436106100ea5760003560e01c806379cc67901161008c578063a457c2d711610066578063a457c2d714610250578063a9059cbb1461027c578063dd62ed3e146102a8578063f2fde38b146102d6576100ea565b806379cc6790146101f85780638da5cb5b146102245780638f32d59b14610248576100ea565b806339509351116100c8578063395093511461017f57806342966c68146101ab57806370a08231146101ca578063715018a6146101f0576100ea565b8063095ea7b3146100ef57806318160ddd1461012f57806323b872dd14610149575b600080fd5b61011b6004803603604081101561010557600080fd5b506001600160a01b0381351690602001356102fc565b604080519115158252519081900360200190f35b610137610312565b60408051918252519081900360200190f35b61011b6004803603606081101561015f57600080fd5b506001600160a01b03813581169160208101359091169060400135610318565b61011b6004803603604081101561019557600080fd5b506001600160a01b03813516906020013561036f565b6101c8600480360360208110156101c157600080fd5b50356103ab565b005b610137600480360360208110156101e057600080fd5b50356001600160a01b0316610414565b6101c861042f565b6101c86004803603604081101561020e57600080fd5b506001600160a01b0381351690602001356104d5565b61022c6104e3565b604080516001600160a01b039092168252519081900360200190f35b61011b6104f2565b61011b6004803603604081101561026657600080fd5b506001600160a01b038135169060200135610503565b61011b6004803603604081101561029257600080fd5b506001600160a01b03813516906020013561053f565b610137600480360360408110156102be57600080fd5b506001600160a01b038135811691602001351661054c565b6101c8600480360360208110156102ec57600080fd5b50356001600160a01b0316610577565b60006103093384846105dc565b50600192915050565b60035490565b60006103258484846106ce565b6001600160a01b038416600090815260026020908152604080832033808552925290912054610365918691610360908663ffffffff61081816565b6105dc565b5060019392505050565b3360008181526002602090815260408083206001600160a01b03871684529091528120549091610309918590610360908663ffffffff61087816565b6103b36104f2565b6104075760408051600160e51b62461bcd02815260206004820181905260248201527f4f776e61626c653a2063616c6c6572206973206e6f7420746865206f776e6572604482015290519081900360640190fd5b61041133826108dc565b50565b6001600160a01b031660009081526001602052604090205490565b6104376104f2565b61048b5760408051600160e51b62461bcd02815260206004820181905260248201527f4f776e61626c653a2063616c6c6572206973206e6f7420746865206f776e6572604482015290519081900360640190fd5b600080546040516001600160a01b03909116907f8be0079c531659141344cd1fd0a4f28419497f9722a3daafe3b4186f6b6457e0908390a3600080546001600160a01b0319169055565b6104df82826109ba565b5050565b6000546001600160a01b031690565b6000546001600160a01b0316331490565b3360008181526002602090815260408083206001600160a01b03871684529091528120549091610309918590610360908663ffffffff61081816565b60006103093384846106ce565b6001600160a01b03918216600090815260026020908152604080832093909416825291909152205490565b61057f6104f2565b6105d35760408051600160e51b62461bcd02815260206004820181905260248201527f4f776e61626c653a2063616c6c6572206973206e6f7420746865206f776e6572604482015290519081900360640190fd5b610411816109ff565b6001600160a01b03831661062457604051600160e51b62461bcd028152600401808060200182810382526024815260200180610b546024913960400191505060405180910390fd5b6001600160a01b03821661066c57604051600160e51b62461bcd028152600401808060200182810382526022815260200180610aec6022913960400191505060405180910390fd5b6001600160a01b03808416600081815260026020908152604080832094871680845294825291829020859055815185815291517f8c5be1e5ebec7d5bd14f71427d1e84f3dd0314c0f7b2291e5b200ac8c7c3b9259281900390910190a3505050565b6001600160a01b03831661071657604051600160e51b62461bcd028152600401808060200182810382526025815260200180610b2f6025913960400191505060405180910390fd5b6001600160a01b03821661075e57604051600160e51b62461bcd028152600401808060200182810382526023815260200180610aa36023913960400191505060405180910390fd5b6001600160a01b038316600090815260016020526040902054610787908263ffffffff61081816565b6001600160a01b0380851660009081526001602052604080822093909355908416815220546107bc908263ffffffff61087816565b6001600160a01b0380841660008181526001602090815260409182902094909455805185815290519193928716927fddf252ad1be2c89b69c2b068fc378daa952ba7f163c4a11628f55a4df523b3ef92918290030190a3505050565b6000828211156108725760408051600160e51b62461bcd02815260206004820152601e60248201527f536166654d6174683a207375627472616374696f6e206f766572666c6f770000604482015290519081900360640190fd5b50900390565b6000828201838110156108d55760408051600160e51b62461bcd02815260206004820152601b60248201527f536166654d6174683a206164646974696f6e206f766572666c6f770000000000604482015290519081900360640190fd5b9392505050565b6001600160a01b03821661092457604051600160e51b62461bcd028152600401808060200182810382526021815260200180610b0e6021913960400191505060405180910390fd5b600354610937908263ffffffff61081816565b6003556001600160a01b038216600090815260016020526040902054610963908263ffffffff61081816565b6001600160a01b0383166000818152600160209081526040808320949094558351858152935191937fddf252ad1be2c89b69c2b068fc378daa952ba7f163c4a11628f55a4df523b3ef929081900390910190a35050565b6109c482826108dc565b6001600160a01b0382166000908152600260209081526040808320338085529252909120546104df918491610360908563ffffffff61081816565b6001600160a01b038116610a4757604051600160e51b62461bcd028152600401808060200182810382526026815260200180610ac66026913960400191505060405180910390fd5b600080546040516001600160a01b03808516939216917f8be0079c531659141344cd1fd0a4f28419497f9722a3daafe3b4186f6b6457e091a3600080546001600160a01b0319166001600160a01b039290921691909117905556fe45524332303a207472616e7366657220746f20746865207a65726f20616464726573734f776e61626c653a206e6577206f776e657220697320746865207a65726f206164647265737345524332303a20617070726f766520746f20746865207a65726f206164647265737345524332303a206275726e2066726f6d20746865207a65726f206164647265737345524332303a207472616e736665722066726f6d20746865207a65726f206164647265737345524332303a20617070726f76652066726f6d20746865207a65726f2061646472657373a165627a7a7230582011cae50bafe3b3b73096128693e643b78ec7a32d939d76850fda43449887a9880029",
  "source": "pragma solidity ^0.5.0;\n\nimport \"./ERC20.sol\";\n\n/**\n * @dev Extension of `ERC20` that allows token holders to destroy both their own\n * tokens and those that they have an allowance for, in a way that can be\n * recognized off-chain (via event analysis).\n */\ncontract ERC20Burnable is ERC20 {\n    /**\n     * @dev Destoys `amount` tokens from the caller.\n     *\n     * See `ERC20._burn`.\n     */\n    function burn(uint256 amount) public onlyOwner {\n        _burn(msg.sender, amount);\n    }\n\n    /**\n     * @dev See `ERC20._burnFrom`.\n     */\n    function burnFrom(address account, uint256 amount) public {\n        _burnFrom(account, amount);\n    }\n}\n",
  "sourcePath": "/Data/projects/Snap/SnapBotToken/contracts/ERC20Burnable.sol",
  "compiler": {
    "name": "solc",
    "version": "0.5.8+commit.23d335f2.Emscripten.clang"
  },
  "schemaVersion": "3.0.15",
  "updatedAt": "2019-12-20T11:16:15.873Z",
  "devdoc": {
    "details": "Extension of `ERC20` that allows token holders to destroy both their own tokens and those that they have an allowance for, in a way that can be recognized off-chain (via event analysis).",
    "methods": {
      "allowance(address,address)": {
        "details": "See `IERC20.allowance`."
      },
      "approve(address,uint256)": {
        "details": "See `IERC20.approve`.     * Requirements:     * - `spender` cannot be the zero address."
      },
      "balanceOf(address)": {
        "details": "See `IERC20.balanceOf`."
      },
      "burn(uint256)": {
        "details": "Destoys `amount` tokens from the caller.     * See `ERC20._burn`."
      },
      "burnFrom(address,uint256)": {
        "details": "See `ERC20._burnFrom`."
      },
      "decreaseAllowance(address,uint256)": {
        "details": "Atomically decreases the allowance granted to `spender` by the caller.     * This is an alternative to `approve` that can be used as a mitigation for problems described in `IERC20.approve`.     * Emits an `Approval` event indicating the updated allowance.     * Requirements:     * - `spender` cannot be the zero address. - `spender` must have allowance for the caller of at least `subtractedValue`."
      },
      "increaseAllowance(address,uint256)": {
        "details": "Atomically increases the allowance granted to `spender` by the caller.     * This is an alternative to `approve` that can be used as a mitigation for problems described in `IERC20.approve`.     * Emits an `Approval` event indicating the updated allowance.     * Requirements:     * - `spender` cannot be the zero address."
      },
      "isOwner()": {
        "details": "Returns true if the caller is the current owner."
      },
      "owner()": {
        "details": "Returns the address of the current owner."
      },
      "renounceOwnership()": {
        "details": "Leaves the contract without owner. It will not be possible to call `onlyOwner` functions anymore. Can only be called by the current owner.     * > Note: Renouncing ownership will leave the contract without an owner, thereby removing any functionality that is only available to the owner."
      },
      "totalSupply()": {
        "details": "See `IERC20.totalSupply`."
      },
      "transfer(address,uint256)": {
        "details": "See `IERC20.transfer`.     * Requirements:     * - `recipient` cannot be the zero address. - the caller must have a balance of at least `amount`."
      },
      "transferFrom(address,address,uint256)": {
        "details": "See `IERC20.transferFrom`.     * Emits an `Approval` event indicating the updated allowance. This is not required by the EIP. See the note at the beginning of `ERC20`;     * Requirements: - `sender` and `recipient` cannot be the zero address. - `sender` must have a balance of at least `value`. - the caller must have allowance for `sender`'s tokens of at least `amount`."
      },
      "transferOwnership(address)": {
        "details": "Transfers ownership of the contract to a new account (`newOwner`). Can only be called by the current owner."
      }
    }
  },
  "userdoc": {
    "methods": {}
  }
}